{
  "contractName": "Voting",
  "abi": [
    {
      "inputs": [],
      "stateMutability": "nonpayable",
      "type": "constructor"
    },
    {
      "anonymous": false,
      "inputs": [
        {
          "indexed": true,
          "internalType": "address",
          "name": "previousOwner",
          "type": "address"
        },
        {
          "indexed": true,
          "internalType": "address",
          "name": "newOwner",
          "type": "address"
        }
      ],
      "name": "OwnershipTransferred",
      "type": "event"
    },
    {
      "anonymous": false,
      "inputs": [
        {
          "indexed": false,
          "internalType": "uint256",
          "name": "proposalId",
          "type": "uint256"
        }
      ],
      "name": "ProposalRegistered",
      "type": "event"
    },
    {
      "anonymous": false,
      "inputs": [
        {
          "indexed": false,
          "internalType": "address",
          "name": "voterAddress",
          "type": "address"
        },
        {
          "indexed": false,
          "internalType": "uint256",
          "name": "proposalId",
          "type": "uint256"
        }
      ],
      "name": "Voted",
      "type": "event"
    },
    {
      "anonymous": false,
      "inputs": [
        {
          "indexed": false,
          "internalType": "address",
          "name": "voterAddress",
          "type": "address"
        }
      ],
      "name": "VoterRegistered",
      "type": "event"
    },
    {
      "anonymous": false,
      "inputs": [
        {
          "indexed": false,
          "internalType": "enum Voting.WorkflowStatus",
          "name": "previousStatus",
          "type": "uint8"
        },
        {
          "indexed": false,
          "internalType": "enum Voting.WorkflowStatus",
          "name": "newStatus",
          "type": "uint8"
        }
      ],
      "name": "WorkflowStatusChange",
      "type": "event"
    },
    {
      "inputs": [],
      "name": "owner",
      "outputs": [
        {
          "internalType": "address",
          "name": "",
          "type": "address"
        }
      ],
      "stateMutability": "view",
      "type": "function",
      "constant": true
    },
    {
      "inputs": [],
      "name": "renounceOwnership",
      "outputs": [],
      "stateMutability": "nonpayable",
      "type": "function"
    },
    {
      "inputs": [
        {
          "internalType": "address",
          "name": "newOwner",
          "type": "address"
        }
      ],
      "name": "transferOwnership",
      "outputs": [],
      "stateMutability": "nonpayable",
      "type": "function"
    },
    {
      "inputs": [
        {
          "internalType": "address",
          "name": "_voterAddress",
          "type": "address"
        }
      ],
      "name": "addVoter",
      "outputs": [],
      "stateMutability": "nonpayable",
      "type": "function"
    },
    {
      "inputs": [
        {
          "internalType": "address",
          "name": "_voterAddress",
          "type": "address"
        }
      ],
      "name": "removeVoter",
      "outputs": [],
      "stateMutability": "nonpayable",
      "type": "function"
    },
    {
      "inputs": [
        {
          "internalType": "address",
          "name": "_voterAddress",
          "type": "address"
        }
      ],
      "name": "getVoter",
      "outputs": [
        {
          "components": [
            {
              "internalType": "address",
              "name": "account",
              "type": "address"
            },
            {
              "internalType": "bool",
              "name": "isRegistered",
              "type": "bool"
            },
            {
              "internalType": "bool",
              "name": "hasVoted",
              "type": "bool"
            },
            {
              "internalType": "uint256",
              "name": "votedProposalId",
              "type": "uint256"
            },
            {
              "internalType": "uint256",
              "name": "walletVoter",
              "type": "uint256"
            }
          ],
          "internalType": "struct Voting.Voter",
          "name": "",
          "type": "tuple"
        }
      ],
      "stateMutability": "nonpayable",
      "type": "function"
    },
    {
      "inputs": [],
      "name": "getVoters",
      "outputs": [
        {
          "components": [
            {
              "internalType": "address",
              "name": "account",
              "type": "address"
            },
            {
              "internalType": "bool",
              "name": "isRegistered",
              "type": "bool"
            },
            {
              "internalType": "bool",
              "name": "hasVoted",
              "type": "bool"
            },
            {
              "internalType": "uint256",
              "name": "votedProposalId",
              "type": "uint256"
            },
            {
              "internalType": "uint256",
              "name": "walletVoter",
              "type": "uint256"
            }
          ],
          "internalType": "struct Voting.Voter[]",
          "name": "",
          "type": "tuple[]"
        }
      ],
      "stateMutability": "view",
      "type": "function",
      "constant": true
    },
    {
      "inputs": [],
      "name": "getWorkflowstatus",
      "outputs": [
        {
          "internalType": "enum Voting.WorkflowStatus",
          "name": "",
          "type": "uint8"
        }
      ],
      "stateMutability": "view",
      "type": "function",
      "constant": true
    },
    {
      "inputs": [],
      "name": "startRegisteringProposals",
      "outputs": [],
      "stateMutability": "nonpayable",
      "type": "function"
    },
    {
      "inputs": [
        {
          "internalType": "string",
          "name": "_description",
          "type": "string"
        }
      ],
      "name": "addProposal",
      "outputs": [],
      "stateMutability": "nonpayable",
      "type": "function"
    },
    {
      "inputs": [
        {
          "internalType": "uint256",
          "name": "_proposalId",
          "type": "uint256"
        }
      ],
      "name": "getProposal",
      "outputs": [
        {
          "components": [
            {
              "internalType": "string",
              "name": "description",
              "type": "string"
            },
            {
              "internalType": "uint256",
              "name": "voteCount",
              "type": "uint256"
            }
          ],
          "internalType": "struct Voting.Proposal",
          "name": "",
          "type": "tuple"
        }
      ],
      "stateMutability": "view",
      "type": "function",
      "constant": true
    },
    {
      "inputs": [],
      "name": "getProposals",
      "outputs": [
        {
          "components": [
            {
              "internalType": "string",
              "name": "description",
              "type": "string"
            },
            {
              "internalType": "uint256",
              "name": "voteCount",
              "type": "uint256"
            }
          ],
          "internalType": "struct Voting.Proposal[]",
          "name": "",
          "type": "tuple[]"
        }
      ],
      "stateMutability": "view",
      "type": "function",
      "constant": true
    },
    {
      "inputs": [],
      "name": "stopRegisteringProposals",
      "outputs": [],
      "stateMutability": "nonpayable",
      "type": "function"
    },
    {
      "inputs": [],
      "name": "startVotingSession",
      "outputs": [],
      "stateMutability": "nonpayable",
      "type": "function"
    },
    {
      "inputs": [
        {
          "internalType": "uint256",
          "name": "_proposalId",
          "type": "uint256"
        }
      ],
      "name": "vote",
      "outputs": [],
      "stateMutability": "nonpayable",
      "type": "function"
    },
    {
      "inputs": [],
      "name": "stopVotingSession",
      "outputs": [],
      "stateMutability": "nonpayable",
      "type": "function"
    },
    {
      "inputs": [],
      "name": "tallyVotes",
      "outputs": [],
      "stateMutability": "nonpayable",
      "type": "function"
    },
    {
      "inputs": [],
      "name": "getWinningProposalIds",
      "outputs": [
        {
          "internalType": "uint256[]",
          "name": "",
          "type": "uint256[]"
        }
      ],
      "stateMutability": "view",
      "type": "function",
      "constant": true
    },
    {
      "inputs": [],
      "name": "getWinners",
      "outputs": [
        {
          "components": [
            {
              "internalType": "string",
              "name": "description",
              "type": "string"
            },
            {
              "internalType": "uint256",
              "name": "voteCount",
              "type": "uint256"
            }
          ],
          "internalType": "struct Voting.Proposal[]",
          "name": "",
          "type": "tuple[]"
        }
      ],
      "stateMutability": "view",
      "type": "function",
      "constant": true
    },
    {
      "inputs": [],
      "name": "getHighestVoteCount",
      "outputs": [
        {
          "internalType": "uint256",
          "name": "",
          "type": "uint256"
        }
      ],
      "stateMutability": "view",
      "type": "function",
      "constant": true
    },
    {
      "inputs": [
        {
          "internalType": "address",
          "name": "_voterAddress",
          "type": "address"
        }
      ],
      "name": "resetContract",
      "outputs": [],
      "stateMutability": "nonpayable",
      "type": "function"
    }
  ],
  "bytecode": "0x60806040523480156200001157600080fd5b5062000032620000266200004960201b60201c565b6200005160201b60201c565b62000043336200011560201b60201c565b620007b4565b600033905090565b60008060009054906101000a900473ffffffffffffffffffffffffffffffffffffffff169050816000806101000a81548173ffffffffffffffffffffffffffffffffffffffff021916908373ffffffffffffffffffffffffffffffffffffffff1602179055508173ffffffffffffffffffffffffffffffffffffffff168173ffffffffffffffffffffffffffffffffffffffff167f8be0079c531659141344cd1fd0a4f28419497f9722a3daafe3b4186f6b6457e060405160405180910390a35050565b620001256200004960201b60201c565b73ffffffffffffffffffffffffffffffffffffffff166200014b6200056d60201b60201c565b73ffffffffffffffffffffffffffffffffffffffff1614620001a4576040517f08c379a00000000000000000000000000000000000000000000000000000000081526004016200019b90620005f7565b60405180910390fd5b60006006811115620001bb57620001ba62000619565b5b600260009054906101000a900460ff166006811115620001e057620001df62000619565b5b1462000223576040517f08c379a00000000000000000000000000000000000000000000000000000000081526004016200021a90620006be565b60405180910390fd5b600360008273ffffffffffffffffffffffffffffffffffffffff1673ffffffffffffffffffffffffffffffffffffffff16815260200190815260200160002060000160149054906101000a900460ff1615620002b6576040517f08c379a0000000000000000000000000000000000000000000000000000000008152600401620002ad9062000730565b60405180910390fd5b6001600360008373ffffffffffffffffffffffffffffffffffffffff1673ffffffffffffffffffffffffffffffffffffffff16815260200190815260200160002060000160146101000a81548160ff02191690831515021790555080600360008373ffffffffffffffffffffffffffffffffffffffff1673ffffffffffffffffffffffffffffffffffffffff16815260200190815260200160002060000160006101000a81548173ffffffffffffffffffffffffffffffffffffffff021916908373ffffffffffffffffffffffffffffffffffffffff1602179055508073ffffffffffffffffffffffffffffffffffffffff1631600360008373ffffffffffffffffffffffffffffffffffffffff1673ffffffffffffffffffffffffffffffffffffffff168152602001908152602001600020600201819055506007600360008373ffffffffffffffffffffffffffffffffffffffff1673ffffffffffffffffffffffffffffffffffffffff16815260200190815260200160002090806001815401808255809150506001900390600052602060002090600302016000909190919091506000820160009054906101000a900473ffffffffffffffffffffffffffffffffffffffff168160000160006101000a81548173ffffffffffffffffffffffffffffffffffffffff021916908373ffffffffffffffffffffffffffffffffffffffff1602179055506000820160149054906101000a900460ff168160000160146101000a81548160ff0219169083151502179055506000820160159054906101000a900460ff168160000160156101000a81548160ff021916908315150217905550600182015481600101556002820154816002015550507fb6be2187d059cc2a55fe29e0e503b566e1e0f8c8780096e185429350acffd3dd8160405162000562919062000797565b60405180910390a150565b60008060009054906101000a900473ffffffffffffffffffffffffffffffffffffffff16905090565b600082825260208201905092915050565b7f4f776e61626c653a2063616c6c6572206973206e6f7420746865206f776e6572600082015250565b6000620005df60208362000596565b9150620005ec82620005a7565b602082019050919050565b600060208201905081810360008301526200061281620005d0565b9050919050565b7f4e487b7100000000000000000000000000000000000000000000000000000000600052602160045260246000fd5b7f54686520776f726b666c6f77207374617475732063616e6e6f7420616c6c6f7760008201527f656420796f7520746f2061646420766f746572732e0000000000000000000000602082015250565b6000620006a660358362000596565b9150620006b38262000648565b604082019050919050565b60006020820190508181036000830152620006d98162000697565b9050919050565b7f54686520766f74657220697320616c726561647920726567697374657265642e600082015250565b60006200071860208362000596565b91506200072582620006e0565b602082019050919050565b600060208201905081810360008301526200074b8162000709565b9050919050565b600073ffffffffffffffffffffffffffffffffffffffff82169050919050565b60006200077f8262000752565b9050919050565b620007918162000772565b82525050565b6000602082019050620007ae600083018462000786565b92915050565b61415780620007c46000396000f3fe608060405234801561001057600080fd5b50600436106101365760003560e01c80638da5cb5b116100b8578063d4f50f981161007c578063d4f50f98146102a5578063df15c37e146102d5578063e67ad759146102f3578063ee74c6781461030f578063f2fde38b14610319578063f4ab9adf1461033557610136565b80638da5cb5b146101fd578063b5d2b5031461021b578063ba81d9fd14610239578063c7f758a814610257578063cdd722531461028757610136565b8063378a2178116100ff578063378a2178146101a557806362564c48146101af578063715018a6146101cd57806385d91578146101d757806386c1ff68146101e157610136565b8062af7ead1461013b5780630121b93f14610159578063017f25811461017557806317a0ad8e1461017f5780632fdae3c514610189575b600080fd5b610143610351565b6040516101509190612b0b565b60405180910390f35b610173600480360381019061016e9190612b66565b6103d1565b005b61017d6106c6565b005b61018761081f565b005b6101a3600480360381019061019e9190612cd9565b610979565b005b6101ad610b89565b005b6101b7610e97565b6040516101c49190612eb8565b60405180910390f35b6101d5611021565b005b6101df6110a9565b005b6101fb60048036038101906101f69190612f38565b611203565b005b6102056114ba565b6040516102129190612f74565b60405180910390f35b6102236114e3565b604051610230919061303e565b60405180910390f35b6102416115c4565b60405161024e91906130d7565b60405180910390f35b610271600480360381019061026c9190612b66565b6115db565b60405161027e919061312f565b60405180910390f35b61028f611789565b60405161029c9190613292565b60405180910390f35b6102bf60048036038101906102ba9190612f38565b611904565b6040516102cc919061331c565b60405180910390f35b6102dd611b6b565b6040516102ea9190612eb8565b60405180910390f35b61030d60048036038101906103089190612f38565b611cef565b005b610317612112565b005b610333600480360381019061032e9190612f38565b61226c565b005b61034f600480360381019061034a9190612f38565b612363565b005b60006005600681111561036757610366613060565b5b600260009054906101000a900460ff16600681111561038957610388613060565b5b146103c9576040517f08c379a00000000000000000000000000000000000000000000000000000000081526004016103c0906133e0565b60405180910390fd5b600154905090565b600360003373ffffffffffffffffffffffffffffffffffffffff1673ffffffffffffffffffffffffffffffffffffffff16815260200190815260200160002060000160149054906101000a900460ff16610460576040517f08c379a00000000000000000000000000000000000000000000000000000000081526004016104579061344c565b60405180910390fd5b6003600681111561047457610473613060565b5b600260009054906101000a900460ff16600681111561049657610495613060565b5b146104d6576040517f08c379a00000000000000000000000000000000000000000000000000000000081526004016104cd906134de565b60405180910390fd5b600680549050811061051d576040517f08c379a000000000000000000000000000000000000000000000000000000000815260040161051490613570565b60405180910390fd5b600360003373ffffffffffffffffffffffffffffffffffffffff1673ffffffffffffffffffffffffffffffffffffffff16815260200190815260200160002060000160159054906101000a900460ff16156105ad576040517f08c379a00000000000000000000000000000000000000000000000000000000081526004016105a4906135dc565b60405180910390fd5b80600360003373ffffffffffffffffffffffffffffffffffffffff1673ffffffffffffffffffffffffffffffffffffffff168152602001908152602001600020600101819055506001600360003373ffffffffffffffffffffffffffffffffffffffff1673ffffffffffffffffffffffffffffffffffffffff16815260200190815260200160002060000160156101000a81548160ff02191690831515021790555060068181548110610663576106626135fc565b5b906000526020600020906002020160010160008154809291906106859061365a565b91905055507f4d99b957a2bc29a30ebd96a7be8e68fe50a3c701db28a91436490b7d53870ca433826040516106bb9291906136a2565b60405180910390a150565b6106ce61279a565b73ffffffffffffffffffffffffffffffffffffffff166106ec6114ba565b73ffffffffffffffffffffffffffffffffffffffff1614610742576040517f08c379a000000000000000000000000000000000000000000000000000000000815260040161073990613717565b60405180910390fd5b6001600681111561075657610755613060565b5b600260009054906101000a900460ff16600681111561077857610777613060565b5b146107b8576040517f08c379a00000000000000000000000000000000000000000000000000000000081526004016107af906137cf565b60405180910390fd5b60028060006101000a81548160ff021916908360068111156107dd576107dc613060565b5b02179055507f0a97a4ee45751e2abf3e4fc8946939630b11b371ea8ae39ccdc3056e98f5cc3f600160026040516108159291906137ef565b60405180910390a1565b61082761279a565b73ffffffffffffffffffffffffffffffffffffffff166108456114ba565b73ffffffffffffffffffffffffffffffffffffffff161461089b576040517f08c379a000000000000000000000000000000000000000000000000000000000815260040161089290613717565b60405180910390fd5b600360068111156108af576108ae613060565b5b600260009054906101000a900460ff1660068111156108d1576108d0613060565b5b14610911576040517f08c379a00000000000000000000000000000000000000000000000000000000081526004016109089061388a565b60405180910390fd5b6004600260006101000a81548160ff0219169083600681111561093757610936613060565b5b02179055507f0a97a4ee45751e2abf3e4fc8946939630b11b371ea8ae39ccdc3056e98f5cc3f6003600460405161096f9291906137ef565b60405180910390a1565b600360003373ffffffffffffffffffffffffffffffffffffffff1673ffffffffffffffffffffffffffffffffffffffff16815260200190815260200160002060000160149054906101000a900460ff16610a08576040517f08c379a00000000000000000000000000000000000000000000000000000000081526004016109ff9061344c565b60405180910390fd5b60016006811115610a1c57610a1b613060565b5b600260009054906101000a900460ff166006811115610a3e57610a3d613060565b5b14610a7e576040517f08c379a0000000000000000000000000000000000000000000000000000000008152600401610a759061391c565b60405180910390fd5b610a9781604051806020016040528060008152506127a2565b15610ad7576040517f08c379a0000000000000000000000000000000000000000000000000000000008152600401610ace906139ae565b60405180910390fd5b610adf6128bf565b81816000018190525060068190806001815401808255809150506001900390600052602060002090600202016000909190919091506000820151816000019080519060200190610b309291906128d9565b506020820151816001015550507f92e393e9b54e2f801d3ea4beb0c5e71a21cc34a5d34b77d0fb8a3aa1650dc18f6001600680549050610b7091906139ce565b604051610b7d9190612b0b565b60405180910390a15050565b610b9161279a565b73ffffffffffffffffffffffffffffffffffffffff16610baf6114ba565b73ffffffffffffffffffffffffffffffffffffffff1614610c05576040517f08c379a0000000000000000000000000000000000000000000000000000000008152600401610bfc90613717565b60405180910390fd5b60046006811115610c1957610c18613060565b5b600260009054906101000a900460ff166006811115610c3b57610c3a613060565b5b14610c7b576040517f08c379a0000000000000000000000000000000000000000000000000000000008152600401610c7290613a74565b60405180910390fd5b60005b600680549050811015610e2e57600060068281548110610ca157610ca06135fc565b5b9060005260206000209060020201604051806040016040529081600082018054610cca90613ac3565b80601f0160208091040260200160405190810160405280929190818152602001828054610cf690613ac3565b8015610d435780601f10610d1857610100808354040283529160200191610d43565b820191906000526020600020905b815481529060010190602001808311610d2657829003601f168201915b505050505081526020016001820154815250509050600460008260200151815260200190815260200160002082908060018154018082558091505060019003906000526020600020016000909190919091505560056000826020015181526020019081526020016000208190806001815401808255809150506001900390600052602060002090600202016000909190919091506000820151816000019080519060200190610df39291906128d9565b5060208201518160010155505080602001516001541015610e1a5780602001516001819055505b508080610e269061365a565b915050610c7e565b506005600260006101000a81548160ff02191690836006811115610e5557610e54613060565b5b02179055507f0a97a4ee45751e2abf3e4fc8946939630b11b371ea8ae39ccdc3056e98f5cc3f60046005604051610e8d9291906137ef565b60405180910390a1565b6060600360003373ffffffffffffffffffffffffffffffffffffffff1673ffffffffffffffffffffffffffffffffffffffff16815260200190815260200160002060000160149054906101000a900460ff16610f28576040517f08c379a0000000000000000000000000000000000000000000000000000000008152600401610f1f9061344c565b60405180910390fd5b6006805480602002602001604051908101604052809291908181526020016000905b828210156110185783829060005260206000209060020201604051806040016040529081600082018054610f7d90613ac3565b80601f0160208091040260200160405190810160405280929190818152602001828054610fa990613ac3565b8015610ff65780601f10610fcb57610100808354040283529160200191610ff6565b820191906000526020600020905b815481529060010190602001808311610fd957829003601f168201915b5050505050815260200160018201548152505081526020019060010190610f4a565b50505050905090565b61102961279a565b73ffffffffffffffffffffffffffffffffffffffff166110476114ba565b73ffffffffffffffffffffffffffffffffffffffff161461109d576040517f08c379a000000000000000000000000000000000000000000000000000000000815260040161109490613717565b60405180910390fd5b6110a760006127fb565b565b6110b161279a565b73ffffffffffffffffffffffffffffffffffffffff166110cf6114ba565b73ffffffffffffffffffffffffffffffffffffffff1614611125576040517f08c379a000000000000000000000000000000000000000000000000000000000815260040161111c90613717565b60405180910390fd5b6000600681111561113957611138613060565b5b600260009054906101000a900460ff16600681111561115b5761115a613060565b5b1461119b576040517f08c379a000000000000000000000000000000000000000000000000000000000815260040161119290613b8c565b60405180910390fd5b6001600260006101000a81548160ff021916908360068111156111c1576111c0613060565b5b02179055507f0a97a4ee45751e2abf3e4fc8946939630b11b371ea8ae39ccdc3056e98f5cc3f600060016040516111f99291906137ef565b60405180910390a1565b61120b61279a565b73ffffffffffffffffffffffffffffffffffffffff166112296114ba565b73ffffffffffffffffffffffffffffffffffffffff161461127f576040517f08c379a000000000000000000000000000000000000000000000000000000000815260040161127690613717565b60405180910390fd5b6000600681111561129357611292613060565b5b600260009054906101000a900460ff1660068111156112b5576112b4613060565b5b146112f5576040517f08c379a00000000000000000000000000000000000000000000000000000000081526004016112ec90613c1e565b60405180910390fd5b600360008273ffffffffffffffffffffffffffffffffffffffff1673ffffffffffffffffffffffffffffffffffffffff16815260200190815260200160002060000160149054906101000a900460ff16611384576040517f08c379a000000000000000000000000000000000000000000000000000000000815260040161137b90613cb0565b60405180910390fd5b6000600360008373ffffffffffffffffffffffffffffffffffffffff1673ffffffffffffffffffffffffffffffffffffffff16815260200190815260200160002060000160146101000a81548160ff021916908315150217905550600360008273ffffffffffffffffffffffffffffffffffffffff1673ffffffffffffffffffffffffffffffffffffffff168152602001908152602001600020600080820160006101000a81549073ffffffffffffffffffffffffffffffffffffffff02191690556000820160146101000a81549060ff02191690556000820160156101000a81549060ff02191690556001820160009055600282016000905550507fb6be2187d059cc2a55fe29e0e503b566e1e0f8c8780096e185429350acffd3dd816040516114af9190612f74565b60405180910390a150565b60008060009054906101000a900473ffffffffffffffffffffffffffffffffffffffff16905090565b6060600560068111156114f9576114f8613060565b5b600260009054906101000a900460ff16600681111561151b5761151a613060565b5b1461155b576040517f08c379a000000000000000000000000000000000000000000000000000000000815260040161155290613d68565b60405180910390fd5b6004600060015481526020019081526020016000208054806020026020016040519081016040528092919081815260200182805480156115ba57602002820191906000526020600020905b8154815260200190600101908083116115a6575b5050505050905090565b6000600260009054906101000a900460ff16905090565b6115e36128bf565b600360003373ffffffffffffffffffffffffffffffffffffffff1673ffffffffffffffffffffffffffffffffffffffff16815260200190815260200160002060000160149054906101000a900460ff16611672576040517f08c379a00000000000000000000000000000000000000000000000000000000081526004016116699061344c565b60405180910390fd5b60068054905082106116b9576040517f08c379a00000000000000000000000000000000000000000000000000000000081526004016116b090613570565b60405180910390fd5b600682815481106116cd576116cc6135fc565b5b90600052602060002090600202016040518060400160405290816000820180546116f690613ac3565b80601f016020809104026020016040519081016040528092919081815260200182805461172290613ac3565b801561176f5780601f106117445761010080835404028352916020019161176f565b820191906000526020600020905b81548152906001019060200180831161175257829003601f168201915b505050505081526020016001820154815250509050919050565b606061179361279a565b73ffffffffffffffffffffffffffffffffffffffff166117b16114ba565b73ffffffffffffffffffffffffffffffffffffffff1614611807576040517f08c379a00000000000000000000000000000000000000000000000000000000081526004016117fe90613717565b60405180910390fd5b6007805480602002602001604051908101604052809291908181526020016000905b828210156118fb57838290600052602060002090600302016040518060a00160405290816000820160009054906101000a900473ffffffffffffffffffffffffffffffffffffffff1673ffffffffffffffffffffffffffffffffffffffff1673ffffffffffffffffffffffffffffffffffffffff1681526020016000820160149054906101000a900460ff161515151581526020016000820160159054906101000a900460ff161515151581526020016001820154815260200160028201548152505081526020019060010190611829565b50505050905090565b61190c61295f565b600360003373ffffffffffffffffffffffffffffffffffffffff1673ffffffffffffffffffffffffffffffffffffffff16815260200190815260200160002060000160149054906101000a900460ff1661199b576040517f08c379a00000000000000000000000000000000000000000000000000000000081526004016119929061344c565b60405180910390fd5b81600360008473ffffffffffffffffffffffffffffffffffffffff1673ffffffffffffffffffffffffffffffffffffffff16815260200190815260200160002060000160006101000a81548173ffffffffffffffffffffffffffffffffffffffff021916908373ffffffffffffffffffffffffffffffffffffffff1602179055508173ffffffffffffffffffffffffffffffffffffffff1631600360008473ffffffffffffffffffffffffffffffffffffffff1673ffffffffffffffffffffffffffffffffffffffff16815260200190815260200160002060020181905550600360008373ffffffffffffffffffffffffffffffffffffffff1673ffffffffffffffffffffffffffffffffffffffff1681526020019081526020016000206040518060a00160405290816000820160009054906101000a900473ffffffffffffffffffffffffffffffffffffffff1673ffffffffffffffffffffffffffffffffffffffff1673ffffffffffffffffffffffffffffffffffffffff1681526020016000820160149054906101000a900460ff161515151581526020016000820160159054906101000a900460ff16151515158152602001600182015481526020016002820154815250509050919050565b606060056006811115611b8157611b80613060565b5b600260009054906101000a900460ff166006811115611ba357611ba2613060565b5b14611be3576040517f08c379a0000000000000000000000000000000000000000000000000000000008152600401611bda90613e20565b60405180910390fd5b600560006001548152602001908152602001600020805480602002602001604051908101604052809291908181526020016000905b82821015611ce65783829060005260206000209060020201604051806040016040529081600082018054611c4b90613ac3565b80601f0160208091040260200160405190810160405280929190818152602001828054611c7790613ac3565b8015611cc45780601f10611c9957610100808354040283529160200191611cc4565b820191906000526020600020905b815481529060010190602001808311611ca757829003601f168201915b5050505050815260200160018201548152505081526020019060010190611c18565b50505050905090565b611cf761279a565b73ffffffffffffffffffffffffffffffffffffffff16611d156114ba565b73ffffffffffffffffffffffffffffffffffffffff1614611d6b576040517f08c379a0000000000000000000000000000000000000000000000000000000008152600401611d6290613717565b60405180910390fd5b60056006811115611d7f57611d7e613060565b5b600260009054906101000a900460ff166006811115611da157611da0613060565b5b14611de1576040517f08c379a0000000000000000000000000000000000000000000000000000000008152600401611dd890613b8c565b60405180910390fd5b600360008273ffffffffffffffffffffffffffffffffffffffff1673ffffffffffffffffffffffffffffffffffffffff16815260200190815260200160002060000160149054906101000a900460ff16611e70576040517f08c379a0000000000000000000000000000000000000000000000000000000008152600401611e6790613cb0565b60405180910390fd5b600360008273ffffffffffffffffffffffffffffffffffffffff1673ffffffffffffffffffffffffffffffffffffffff16815260200190815260200160002060000160159054906101000a900460ff16611eff576040517f08c379a0000000000000000000000000000000000000000000000000000000008152600401611ef690613e8c565b60405180910390fd5b6000600360008373ffffffffffffffffffffffffffffffffffffffff1673ffffffffffffffffffffffffffffffffffffffff16815260200190815260200160002060000160146101000a81548160ff0219169083151502179055506000600360008373ffffffffffffffffffffffffffffffffffffffff1673ffffffffffffffffffffffffffffffffffffffff16815260200190815260200160002060000160156101000a81548160ff021916908315150217905550600360008273ffffffffffffffffffffffffffffffffffffffff1673ffffffffffffffffffffffffffffffffffffffff168152602001908152602001600020600080820160006101000a81549073ffffffffffffffffffffffffffffffffffffffff02191690556000820160146101000a81549060ff02191690556000820160156101000a81549060ff02191690556001820160009055600282016000905550506006600061206491906129a8565b6007600061207291906129cc565b6000600260006101000a81548160ff0219169083600681111561209857612097613060565b5b02179055507fb6be2187d059cc2a55fe29e0e503b566e1e0f8c8780096e185429350acffd3dd816040516120cc9190612f74565b60405180910390a17f0a97a4ee45751e2abf3e4fc8946939630b11b371ea8ae39ccdc3056e98f5cc3f600560006040516121079291906137ef565b60405180910390a150565b61211a61279a565b73ffffffffffffffffffffffffffffffffffffffff166121386114ba565b73ffffffffffffffffffffffffffffffffffffffff161461218e576040517f08c379a000000000000000000000000000000000000000000000000000000000815260040161218590613717565b60405180910390fd5b600260068111156121a2576121a1613060565b5b600260009054906101000a900460ff1660068111156121c4576121c3613060565b5b14612204576040517f08c379a00000000000000000000000000000000000000000000000000000000081526004016121fb90613f1e565b60405180910390fd5b6003600260006101000a81548160ff0219169083600681111561222a57612229613060565b5b02179055507f0a97a4ee45751e2abf3e4fc8946939630b11b371ea8ae39ccdc3056e98f5cc3f600260036040516122629291906137ef565b60405180910390a1565b61227461279a565b73ffffffffffffffffffffffffffffffffffffffff166122926114ba565b73ffffffffffffffffffffffffffffffffffffffff16146122e8576040517f08c379a00000000000000000000000000000000000000000000000000000000081526004016122df90613717565b60405180910390fd5b600073ffffffffffffffffffffffffffffffffffffffff168173ffffffffffffffffffffffffffffffffffffffff1603612357576040517f08c379a000000000000000000000000000000000000000000000000000000000815260040161234e90613fb0565b60405180910390fd5b612360816127fb565b50565b61236b61279a565b73ffffffffffffffffffffffffffffffffffffffff166123896114ba565b73ffffffffffffffffffffffffffffffffffffffff16146123df576040517f08c379a00000000000000000000000000000000000000000000000000000000081526004016123d690613717565b60405180910390fd5b600060068111156123f3576123f2613060565b5b600260009054906101000a900460ff16600681111561241557612414613060565b5b14612455576040517f08c379a000000000000000000000000000000000000000000000000000000000815260040161244c90614042565b60405180910390fd5b600360008273ffffffffffffffffffffffffffffffffffffffff1673ffffffffffffffffffffffffffffffffffffffff16815260200190815260200160002060000160149054906101000a900460ff16156124e5576040517f08c379a00000000000000000000000000000000000000000000000000000000081526004016124dc906140ae565b60405180910390fd5b6001600360008373ffffffffffffffffffffffffffffffffffffffff1673ffffffffffffffffffffffffffffffffffffffff16815260200190815260200160002060000160146101000a81548160ff02191690831515021790555080600360008373ffffffffffffffffffffffffffffffffffffffff1673ffffffffffffffffffffffffffffffffffffffff16815260200190815260200160002060000160006101000a81548173ffffffffffffffffffffffffffffffffffffffff021916908373ffffffffffffffffffffffffffffffffffffffff1602179055508073ffffffffffffffffffffffffffffffffffffffff1631600360008373ffffffffffffffffffffffffffffffffffffffff1673ffffffffffffffffffffffffffffffffffffffff168152602001908152602001600020600201819055506007600360008373ffffffffffffffffffffffffffffffffffffffff1673ffffffffffffffffffffffffffffffffffffffff16815260200190815260200160002090806001815401808255809150506001900390600052602060002090600302016000909190919091506000820160009054906101000a900473ffffffffffffffffffffffffffffffffffffffff168160000160006101000a81548173ffffffffffffffffffffffffffffffffffffffff021916908373ffffffffffffffffffffffffffffffffffffffff1602179055506000820160149054906101000a900460ff168160000160146101000a81548160ff0219169083151502179055506000820160159054906101000a900460ff168160000160156101000a81548160ff021916908315150217905550600182015481600101556002820154816002015550507fb6be2187d059cc2a55fe29e0e503b566e1e0f8c8780096e185429350acffd3dd8160405161278f9190612f74565b60405180910390a150565b600033905090565b6000816040516020016127b5919061410a565b60405160208183030381529060405280519060200120836040516020016127dc919061410a565b6040516020818303038152906040528051906020012014905092915050565b60008060009054906101000a900473ffffffffffffffffffffffffffffffffffffffff169050816000806101000a81548173ffffffffffffffffffffffffffffffffffffffff021916908373ffffffffffffffffffffffffffffffffffffffff1602179055508173ffffffffffffffffffffffffffffffffffffffff168173ffffffffffffffffffffffffffffffffffffffff167f8be0079c531659141344cd1fd0a4f28419497f9722a3daafe3b4186f6b6457e060405160405180910390a35050565b604051806040016040528060608152602001600081525090565b8280546128e590613ac3565b90600052602060002090601f016020900481019282612907576000855561294e565b82601f1061292057805160ff191683800117855561294e565b8280016001018555821561294e579182015b8281111561294d578251825591602001919060010190612932565b5b50905061295b91906129f0565b5090565b6040518060a00160405280600073ffffffffffffffffffffffffffffffffffffffff16815260200160001515815260200160001515815260200160008152602001600081525090565b50805460008255600202906000526020600020908101906129c99190612a0d565b50565b50805460008255600302906000526020600020908101906129ed9190612a3c565b50565b5b80821115612a095760008160009055506001016129f1565b5090565b5b80821115612a385760008082016000612a279190612ab2565b600182016000905550600201612a0e565b5090565b5b80821115612aae57600080820160006101000a81549073ffffffffffffffffffffffffffffffffffffffff02191690556000820160146101000a81549060ff02191690556000820160156101000a81549060ff02191690556001820160009055600282016000905550600301612a3d565b5090565b508054612abe90613ac3565b6000825580601f10612ad05750612aef565b601f016020900490600052602060002090810190612aee91906129f0565b5b50565b6000819050919050565b612b0581612af2565b82525050565b6000602082019050612b206000830184612afc565b92915050565b6000604051905090565b600080fd5b600080fd5b612b4381612af2565b8114612b4e57600080fd5b50565b600081359050612b6081612b3a565b92915050565b600060208284031215612b7c57612b7b612b30565b5b6000612b8a84828501612b51565b91505092915050565b600080fd5b600080fd5b6000601f19601f8301169050919050565b7f4e487b7100000000000000000000000000000000000000000000000000000000600052604160045260246000fd5b612be682612b9d565b810181811067ffffffffffffffff82111715612c0557612c04612bae565b5b80604052505050565b6000612c18612b26565b9050612c248282612bdd565b919050565b600067ffffffffffffffff821115612c4457612c43612bae565b5b612c4d82612b9d565b9050602081019050919050565b82818337600083830152505050565b6000612c7c612c7784612c29565b612c0e565b905082815260208101848484011115612c9857612c97612b98565b5b612ca3848285612c5a565b509392505050565b600082601f830112612cc057612cbf612b93565b5b8135612cd0848260208601612c69565b91505092915050565b600060208284031215612cef57612cee612b30565b5b600082013567ffffffffffffffff811115612d0d57612d0c612b35565b5b612d1984828501612cab565b91505092915050565b600081519050919050565b600082825260208201905092915050565b6000819050602082019050919050565b600081519050919050565b600082825260208201905092915050565b60005b83811015612d88578082015181840152602081019050612d6d565b83811115612d97576000848401525b50505050565b6000612da882612d4e565b612db28185612d59565b9350612dc2818560208601612d6a565b612dcb81612b9d565b840191505092915050565b612ddf81612af2565b82525050565b60006040830160008301518482036000860152612e028282612d9d565b9150506020830151612e176020860182612dd6565b508091505092915050565b6000612e2e8383612de5565b905092915050565b6000602082019050919050565b6000612e4e82612d22565b612e588185612d2d565b935083602082028501612e6a85612d3e565b8060005b85811015612ea65784840389528151612e878582612e22565b9450612e9283612e36565b925060208a01995050600181019050612e6e565b50829750879550505050505092915050565b60006020820190508181036000830152612ed28184612e43565b905092915050565b600073ffffffffffffffffffffffffffffffffffffffff82169050919050565b6000612f0582612eda565b9050919050565b612f1581612efa565b8114612f2057600080fd5b50565b600081359050612f3281612f0c565b92915050565b600060208284031215612f4e57612f4d612b30565b5b6000612f5c84828501612f23565b91505092915050565b612f6e81612efa565b82525050565b6000602082019050612f896000830184612f65565b92915050565b600081519050919050565b600082825260208201905092915050565b6000819050602082019050919050565b6000612fc78383612dd6565b60208301905092915050565b6000602082019050919050565b6000612feb82612f8f565b612ff58185612f9a565b935061300083612fab565b8060005b838110156130315781516130188882612fbb565b975061302383612fd3565b925050600181019050613004565b5085935050505092915050565b600060208201905081810360008301526130588184612fe0565b905092915050565b7f4e487b7100000000000000000000000000000000000000000000000000000000600052602160045260246000fd5b600781106130a05761309f613060565b5b50565b60008190506130b18261308f565b919050565b60006130c1826130a3565b9050919050565b6130d1816130b6565b82525050565b60006020820190506130ec60008301846130c8565b92915050565b6000604083016000830151848203600086015261310f8282612d9d565b91505060208301516131246020860182612dd6565b508091505092915050565b6000602082019050818103600083015261314981846130f2565b905092915050565b600081519050919050565b600082825260208201905092915050565b6000819050602082019050919050565b61318681612efa565b82525050565b60008115159050919050565b6131a18161318c565b82525050565b60a0820160008201516131bd600085018261317d565b5060208201516131d06020850182613198565b5060408201516131e36040850182613198565b5060608201516131f66060850182612dd6565b5060808201516132096080850182612dd6565b50505050565b600061321b83836131a7565b60a08301905092915050565b6000602082019050919050565b600061323f82613151565b613249818561315c565b93506132548361316d565b8060005b8381101561328557815161326c888261320f565b975061327783613227565b925050600181019050613258565b5085935050505092915050565b600060208201905081810360008301526132ac8184613234565b905092915050565b60a0820160008201516132ca600085018261317d565b5060208201516132dd6020850182613198565b5060408201516132f06040850182613198565b5060608201516133036060850182612dd6565b5060808201516133166080850182612dd6565b50505050565b600060a08201905061333160008301846132b4565b92915050565b600082825260208201905092915050565b7f54686520776f726b666c6f77207374617475732063616e6e6f7420616c6c6f7760008201527f656420796f7520746f2073656520746865206869676865737420766f7465206360208201527f6f756e742e000000000000000000000000000000000000000000000000000000604082015250565b60006133ca604583613337565b91506133d582613348565b606082019050919050565b600060208201905081810360008301526133f9816133bd565b9050919050565b7f596f7520617265206e6f74207265676973746572656420617320766f7465722e600082015250565b6000613436602083613337565b915061344182613400565b602082019050919050565b6000602082019050818103600083015261346581613429565b9050919050565b7f54686520776f726b666c6f7720737461747573206e6f7420616c6c6f7765642060008201527f796f7520746f20766f74652e0000000000000000000000000000000000000000602082015250565b60006134c8602c83613337565b91506134d38261346c565b604082019050919050565b600060208201905081810360008301526134f7816134bb565b9050919050565b7f50726f706f73616c206e6f7420666f756e642e20506c6561736520656e74657260008201527f20612076616c69642069642e0000000000000000000000000000000000000000602082015250565b600061355a602c83613337565b9150613565826134fe565b604082019050919050565b600060208201905081810360008301526135898161354d565b9050919050565b7f596f75206861766520616c726561647920766f7465642e000000000000000000600082015250565b60006135c6601783613337565b91506135d182613590565b602082019050919050565b600060208201905081810360008301526135f5816135b9565b9050919050565b7f4e487b7100000000000000000000000000000000000000000000000000000000600052603260045260246000fd5b7f4e487b7100000000000000000000000000000000000000000000000000000000600052601160045260246000fd5b600061366582612af2565b91507fffffffffffffffffffffffffffffffffffffffffffffffffffffffffffffffff82036136975761369661362b565b5b600182019050919050565b60006040820190506136b76000830185612f65565b6136c46020830184612afc565b9392505050565b7f4f776e61626c653a2063616c6c6572206973206e6f7420746865206f776e6572600082015250565b6000613701602083613337565b915061370c826136cb565b602082019050919050565b60006020820190508181036000830152613730816136f4565b9050919050565b7f54686520776f726b666c6f7720737461747573206e6f7420616c6c6f7765642060008201527f796f7520746f2073746f70207265676973746572696e672070726f706f73616c60208201527f732e000000000000000000000000000000000000000000000000000000000000604082015250565b60006137b9604283613337565b91506137c482613737565b606082019050919050565b600060208201905081810360008301526137e8816137ac565b9050919050565b600060408201905061380460008301856130c8565b61381160208301846130c8565b9392505050565b7f54686520776f726b666c6f7720737461747573206e6f7420616c6c6f7765642060008201527f796f7520746f2073746f702074686520766f74696e672073657373696f6e2e00602082015250565b6000613874603f83613337565b915061387f82613818565b604082019050919050565b600060208201905081810360008301526138a381613867565b9050919050565b7f54686520776f726b666c6f77207374617475732063616e6e6f7420616c6c6f7760008201527f656420796f7520746f20726571756573742070726f706f73616c732e00000000602082015250565b6000613906603c83613337565b9150613911826138aa565b604082019050919050565b60006020820190508181036000830152613935816138f9565b9050919050565b7f506c6561736520656e74657220612076616c6964206465736372697074696f6e60008201527f2e00000000000000000000000000000000000000000000000000000000000000602082015250565b6000613998602183613337565b91506139a38261393c565b604082019050919050565b600060208201905081810360008301526139c78161398b565b9050919050565b60006139d982612af2565b91506139e483612af2565b9250828210156139f7576139f661362b565b5b828203905092915050565b7f54686520776f726b666c6f7720737461747573206e6f7420616c6c6f7765642060008201527f796f7520746f2074616c6c7920766f7465732e00000000000000000000000000602082015250565b6000613a5e603383613337565b9150613a6982613a02565b604082019050919050565b60006020820190508181036000830152613a8d81613a51565b9050919050565b7f4e487b7100000000000000000000000000000000000000000000000000000000600052602260045260246000fd5b60006002820490506001821680613adb57607f821691505b602082108103613aee57613aed613a94565b5b50919050565b7f54686520776f726b666c6f7720737461747573206e6f7420616c6c6f7765642060008201527f796f7520746f207374617274207265676973746572696e672070726f706f736160208201527f6c732e0000000000000000000000000000000000000000000000000000000000604082015250565b6000613b76604383613337565b9150613b8182613af4565b606082019050919050565b60006020820190508181036000830152613ba581613b69565b9050919050565b7f54686520776f726b666c6f77207374617475732063616e6e6f7420616c6c6f7760008201527f656420796f7520746f2072656d6f766520766f746572732e0000000000000000602082015250565b6000613c08603883613337565b9150613c1382613bac565b604082019050919050565b60006020820190508181036000830152613c3781613bfb565b9050919050565b7f54686520766f74657220697320616c7265616479206e6f74207265676973746560008201527f7265642e00000000000000000000000000000000000000000000000000000000602082015250565b6000613c9a602483613337565b9150613ca582613c3e565b604082019050919050565b60006020820190508181036000830152613cc981613c8d565b9050919050565b7f54686520776f726b666c6f77207374617475732063616e6e6f7420616c6c6f7760008201527f656420796f7520746f20736565207468652077696e6e6572732070726f706f7360208201527f616c206964732e00000000000000000000000000000000000000000000000000604082015250565b6000613d52604783613337565b9150613d5d82613cd0565b606082019050919050565b60006020820190508181036000830152613d8181613d45565b9050919050565b7f54686520776f726b666c6f77207374617475732063616e6e6f7420616c6c6f7760008201527f656420796f7520746f20736565207468652077696e6e6572732070726f706f7360208201527f616c732e00000000000000000000000000000000000000000000000000000000604082015250565b6000613e0a604483613337565b9150613e1582613d88565b606082019050919050565b60006020820190508181036000830152613e3981613dfd565b9050919050565b7f54686520766f7465722068617320206e6f7420766f7465642e00000000000000600082015250565b6000613e76601983613337565b9150613e8182613e40565b602082019050919050565b60006020820190508181036000830152613ea581613e69565b9050919050565b7f54686520776f726b666c6f7720737461747573206e6f7420616c6c6f7765642060008201527f796f7520746f2073746172742074686520766f74696e672073657373696f6e2e602082015250565b6000613f08604083613337565b9150613f1382613eac565b604082019050919050565b60006020820190508181036000830152613f3781613efb565b9050919050565b7f4f776e61626c653a206e6577206f776e657220697320746865207a65726f206160008201527f6464726573730000000000000000000000000000000000000000000000000000602082015250565b6000613f9a602683613337565b9150613fa582613f3e565b604082019050919050565b60006020820190508181036000830152613fc981613f8d565b9050919050565b7f54686520776f726b666c6f77207374617475732063616e6e6f7420616c6c6f7760008201527f656420796f7520746f2061646420766f746572732e0000000000000000000000602082015250565b600061402c603583613337565b915061403782613fd0565b604082019050919050565b6000602082019050818103600083015261405b8161401f565b9050919050565b7f54686520766f74657220697320616c726561647920726567697374657265642e600082015250565b6000614098602083613337565b91506140a382614062565b602082019050919050565b600060208201905081810360008301526140c78161408b565b9050919050565b600081905092915050565b60006140e482612d4e565b6140ee81856140ce565b93506140fe818560208601612d6a565b80840191505092915050565b600061411682846140d9565b91508190509291505056fea2646970667358221220d55a0a85fb641ed1de263ecf1acefdcc6f694629488f09f403778226a82de29f64736f6c634300080d0033",
  "immutableReferences": {},
  "source": "// SPDX-License-Identifier: MIT\npragma solidity 0.8.13;\n\nimport \"./Ownable.sol\";\n\n/**\n * @title A voting system contract.\n *\n * @author Mamadou  \n *\n * @dev A voting system.\n */\n\ncontract Voting is Ownable {\n    uint256 private highestVoteCount;\n    WorkflowStatus private workflowStatus;\n\n    mapping(address => Voter) private voters;\n    mapping(uint256 => uint256[]) private proposalsIdsVoteCounts;\n    mapping(uint256 => Proposal[]) private proposalsVoteCounts;\n\n    Proposal[] private proposals;\n    Voter[] private isVoter;\n\n    struct Voter {\n        address account;\n        bool isRegistered;\n        bool hasVoted;\n        uint256 votedProposalId;\n        uint256 walletVoter;\n    }\n    struct Proposal {\n        string description;\n        uint256 voteCount;\n    }\n    // voters, proposalsIdsVoteCounts\n    enum WorkflowStatus {\n        RegisteringVoters,\n        ProposalsRegistrationStarted,\n        ProposalsRegistrationEnded,\n        VotingSessionStarted,\n        VotingSessionEnded,\n        VotesTallied,\n        reset\n    }\n\n    event VoterRegistered(address voterAddress);\n    event WorkflowStatusChange(WorkflowStatus previousStatus, WorkflowStatus newStatus);\n    event ProposalRegistered(uint256 proposalId);\n    event Voted(address voterAddress, uint256 proposalId);\n\n    /**\n     * @dev Constructor.\n     */\n    constructor() Ownable() {\n        addVoter(msg.sender);\n    }\n\n    /**\n     * @dev Check if the sender is registered in the voters list.\n     */\n    modifier onlyVoters() {\n        require(voters[msg.sender].isRegistered, \"You are not registered as voter.\");\n        _;\n    }\n\n    /**\n     * @dev Add a voter address into the voters list.\n     *\n     * @param _voterAddress The voter address.\n     */\n    function addVoter(address _voterAddress) public onlyOwner {\n        require(\n            workflowStatus == WorkflowStatus.RegisteringVoters,\n            \"The workflow status cannot allowed you to add voters.\"\n        );\n        require(!voters[_voterAddress].isRegistered, \"The voter is already registered.\");\n\n        voters[_voterAddress].isRegistered = true;\n        voters[_voterAddress].account = _voterAddress;\n        voters[_voterAddress].walletVoter = _voterAddress.balance;\n\n        isVoter.push(voters[_voterAddress]);\n        emit VoterRegistered(_voterAddress);\n    }\n\n    /**\n    @dev Remove a voter address from the voters list.\n    @param _voterAddress The voter address.\n     */\n\n    function removeVoter(address _voterAddress) external onlyOwner {\n        require(\n            workflowStatus == WorkflowStatus.RegisteringVoters,\n            \"The workflow status cannot allowed you to remove voters.\"\n        );\n        require(voters[_voterAddress].isRegistered, \"The voter is already not registered.\");\n\n        voters[_voterAddress].isRegistered = false;\n\n        delete voters[_voterAddress];\n\n        emit VoterRegistered(_voterAddress);\n    }\n\n    /**\n    @dev Get a voter information.\n    @param _voterAddress The voter address.\n    @return Voter The voter.\n    */\n    function getVoter(address _voterAddress) external onlyVoters returns (Voter memory) {\n        voters[_voterAddress].account = _voterAddress;\n        voters[_voterAddress].walletVoter = _voterAddress.balance;\n\n        return voters[_voterAddress];\n    }\n\n    /**\n    @dev Get all proposal.\n    @return voters registered[] The proposal list.\n     */\n    function getVoters() external view onlyOwner returns (Voter[] memory) {\n        return isVoter;\n    }\n\n    /**\n    @dev Compare two string and return a boolean.\n    @param _string1 The first string.\n    @param _string2 The second string.\n    @return bool Returns false if there is a difference, otherwise returns true.\n     */\n    function stringComparing(string memory _string1, string memory _string2) internal pure returns (bool) {\n        return (keccak256(abi.encodePacked((_string1))) == keccak256(abi.encodePacked((_string2))));\n    }\n\n    /** \n     @dev Get the workflow status.\n     @return Workflowstatus The workflowStatus.\n     */\n    function getWorkflowstatus() external view returns (WorkflowStatus) {\n        return workflowStatus;\n    }\n\n    /// @dev Launch  register proposals.\n    function startRegisteringProposals() external onlyOwner {\n        require(\n            workflowStatus == WorkflowStatus.RegisteringVoters,\n            \"The workflow status not allowed you to start registering proposals.\"\n        );\n\n        workflowStatus = WorkflowStatus.ProposalsRegistrationStarted;\n\n        emit WorkflowStatusChange(WorkflowStatus.RegisteringVoters, WorkflowStatus.ProposalsRegistrationStarted);\n    }\n\n    /**\n     @dev Add a proposal with a description.\n     @param _description The description of the proposal.\n     */\n    function addProposal(string memory _description) external onlyVoters {\n        require(\n            workflowStatus == WorkflowStatus.ProposalsRegistrationStarted,\n            \"The workflow status cannot allowed you to request proposals.\"\n        );\n        require(!stringComparing(_description, \"\"), \"Please enter a valid description.\");\n\n        Proposal memory proposal;\n        proposal.description = _description;\n        proposals.push(proposal);\n\n        emit ProposalRegistered(proposals.length - 1);\n    }\n\n    /**\n      @dev Get a proposal information with an the proposal id.\n      @param _proposalId The proposal id.\n      @return Proposal The proposal information.\n     */\n    function getProposal(uint256 _proposalId) external view onlyVoters returns (Proposal memory) {\n        require(_proposalId < proposals.length, \"Proposal not found. Please enter a valid id.\");\n\n        return proposals[_proposalId];\n    }\n\n    /**\n    @dev Get all proposal.\n    @return Proposal[] The proposal list.\n     */\n    function getProposals() external view onlyVoters returns (Proposal[] memory) {\n        return proposals;\n    }\n\n    /// @dev Stop registering proposals.\n    function stopRegisteringProposals() external onlyOwner {\n        require(\n            workflowStatus == WorkflowStatus.ProposalsRegistrationStarted,\n            \"The workflow status not allowed you to stop registering proposals.\"\n        );\n\n        workflowStatus = WorkflowStatus.ProposalsRegistrationEnded;\n\n        emit WorkflowStatusChange(\n            WorkflowStatus.ProposalsRegistrationStarted,\n            WorkflowStatus.ProposalsRegistrationEnded\n        );\n    }\n\n    /// @dev Launch the voting session.\n    function startVotingSession() external onlyOwner {\n        require(\n            workflowStatus == WorkflowStatus.ProposalsRegistrationEnded,\n            \"The workflow status not allowed you to start the voting session.\"\n        );\n\n        workflowStatus = WorkflowStatus.VotingSessionStarted;\n\n        emit WorkflowStatusChange(WorkflowStatus.ProposalsRegistrationEnded, WorkflowStatus.VotingSessionStarted);\n    }\n\n    /**\n     @dev Vote to a proposal.\n     @param _proposalId The proposal id.\n     */\n\n    function vote(uint256 _proposalId) external onlyVoters {\n        require(workflowStatus == WorkflowStatus.VotingSessionStarted, \"The workflow status not allowed you to vote.\");\n        require(_proposalId < proposals.length, \"Proposal not found. Please enter a valid id.\");\n        require(!voters[msg.sender].hasVoted, \"You have already voted.\");\n\n        voters[msg.sender].votedProposalId = _proposalId;\n        voters[msg.sender].hasVoted = true;\n        proposals[_proposalId].voteCount++;\n\n        emit Voted(msg.sender, _proposalId);\n    }\n\n    ///  @dev Stop the voting session.\n\n    function stopVotingSession() external onlyOwner {\n        require(\n            workflowStatus == WorkflowStatus.VotingSessionStarted,\n            \"The workflow status not allowed you to stop the voting session.\"\n        );\n\n        workflowStatus = WorkflowStatus.VotingSessionEnded;\n\n        emit WorkflowStatusChange(WorkflowStatus.VotingSessionStarted, WorkflowStatus.VotingSessionEnded);\n    }\n\n    /// @dev Tally all votes. Sort into voteCounts mapping all the proposalIds by vote counted then store the hightest vote count.\n\n    function tallyVotes() external onlyOwner {\n        require(\n            workflowStatus == WorkflowStatus.VotingSessionEnded,\n            \"The workflow status not allowed you to tally votes.\"\n        );\n\n        for (uint256 proposalId = 0; proposalId < proposals.length; proposalId++) {\n            Proposal memory proposal = proposals[proposalId];\n            proposalsIdsVoteCounts[proposal.voteCount].push(proposalId);\n            proposalsVoteCounts[proposal.voteCount].push(proposal);\n\n            if (highestVoteCount < proposal.voteCount) {\n                highestVoteCount = proposal.voteCount;\n            }\n        }\n\n        workflowStatus = WorkflowStatus.VotesTallied;\n\n        emit WorkflowStatusChange(WorkflowStatus.VotingSessionEnded, WorkflowStatus.VotesTallied);\n    }\n\n    /**\n    @dev Get a list of winning proposal ids.\n    @return uint[] A list of winning proposal ids.\n    */\n    function getWinningProposalIds() external view returns (uint256[] memory) {\n        require(\n            workflowStatus == WorkflowStatus.VotesTallied,\n            \"The workflow status cannot allowed you to see the winners proposal ids.\"\n        );\n\n        return proposalsIdsVoteCounts[highestVoteCount];\n    }\n\n    /**\n     @dev Get a list of winning proposal.\n     @return Proposal[] A list of winning proposals.\n     */\n    function getWinners() external view returns (Proposal[] memory) {\n        require(\n            workflowStatus == WorkflowStatus.VotesTallied,\n            \"The workflow status cannot allowed you to see the winners proposals.\"\n        );\n\n        return proposalsVoteCounts[highestVoteCount];\n    }\n\n    /**\n    @dev Get the highest vote counted.\n    @return uint The highest vote counted.\n     */\n    function getHighestVoteCount() external view returns (uint256) {\n        require(\n            workflowStatus == WorkflowStatus.VotesTallied,\n            \"The workflow status cannot allowed you to see the highest vote count.\"\n        );\n\n        return highestVoteCount;\n    }\n\n    /// @dev Reset Contract\n    function resetContract(address _voterAddress) external onlyOwner {\n        require(\n            workflowStatus == WorkflowStatus.VotesTallied,\n            \"The workflow status not allowed you to start registering proposals.\"\n        );\n\n       require(voters[_voterAddress].isRegistered, \"The voter is already not registered.\");\n       require(voters[_voterAddress].hasVoted, \"The voter has  not voted.\");\n\n        voters[_voterAddress].isRegistered = false;\n        voters[_voterAddress].hasVoted = false;\n\n        delete voters[_voterAddress];\n\n        // proposals , isVoter\n\n        delete proposals;\n        delete isVoter;\n\n        workflowStatus = WorkflowStatus.RegisteringVoters;\n        emit VoterRegistered(_voterAddress);\n        emit WorkflowStatusChange(WorkflowStatus.VotesTallied, WorkflowStatus.RegisteringVoters);\n    }\n}\n",
  "sourcePath": "/Users/mamadouseck/Desktop/final Dapp/truffle/contracts/Voting.sol",
  "compiler": {
    "name": "solc",
    "version": "0.8.13+commit.abaa5c0e.Emscripten.clang"
  },
  "schemaVersion": "3.4.7",
  "updatedAt": "2022-04-24T22:40:14.124Z",
  "networkType": "ethereum",
  "devdoc": {
    "author": "Mamadou  ",
    "details": "A voting system.",
    "kind": "dev",
    "methods": {
      "addProposal(string)": {
        "details": "Add a proposal with a description.",
        "params": {
          "_description": "The description of the proposal."
        }
      },
      "addVoter(address)": {
        "details": "Add a voter address into the voters list.",
        "params": {
          "_voterAddress": "The voter address."
        }
      },
      "constructor": {
        "details": "Constructor."
      },
      "getHighestVoteCount()": {
        "details": "Get the highest vote counted.",
        "returns": {
          "_0": "uint The highest vote counted."
        }
      },
      "getProposal(uint256)": {
        "details": "Get a proposal information with an the proposal id.",
        "params": {
          "_proposalId": "The proposal id."
        },
        "returns": {
          "_0": "Proposal The proposal information."
        }
      },
      "getProposals()": {
        "details": "Get all proposal.",
        "returns": {
          "_0": "Proposal[] The proposal list."
        }
      },
      "getVoter(address)": {
        "details": "Get a voter information.",
        "params": {
          "_voterAddress": "The voter address."
        },
        "returns": {
          "_0": "Voter The voter."
        }
      },
      "getVoters()": {
        "details": "Get all proposal.",
        "returns": {
          "_0": "voters registered[] The proposal list."
        }
      },
      "getWinners()": {
        "details": "Get a list of winning proposal.",
        "returns": {
          "_0": "Proposal[] A list of winning proposals."
        }
      },
      "getWinningProposalIds()": {
        "details": "Get a list of winning proposal ids.",
        "returns": {
          "_0": "uint[] A list of winning proposal ids."
        }
      },
      "getWorkflowstatus()": {
        "details": "Get the workflow status.",
        "returns": {
          "_0": "Workflowstatus The workflowStatus."
        }
      },
      "owner()": {
        "details": "Returns the address of the current owner."
      },
      "removeVoter(address)": {
        "details": "Remove a voter address from the voters list.",
        "params": {
          "_voterAddress": "The voter address."
        }
      },
      "renounceOwnership()": {
        "details": "Leaves the contract without owner. It will not be possible to call `onlyOwner` functions anymore. Can only be called by the current owner. NOTE: Renouncing ownership will leave the contract without an owner, thereby removing any functionality that is only available to the owner."
      },
      "resetContract(address)": {
        "details": "Reset Contract"
      },
      "startRegisteringProposals()": {
        "details": "Launch  register proposals."
      },
      "startVotingSession()": {
        "details": "Launch the voting session."
      },
      "stopRegisteringProposals()": {
        "details": "Stop registering proposals."
      },
      "stopVotingSession()": {
        "details": "Stop the voting session."
      },
      "tallyVotes()": {
        "details": "Tally all votes. Sort into voteCounts mapping all the proposalIds by vote counted then store the hightest vote count."
      },
      "transferOwnership(address)": {
        "details": "Transfers ownership of the contract to a new account (`newOwner`). Can only be called by the current owner."
      },
      "vote(uint256)": {
        "details": "Vote to a proposal.",
        "params": {
          "_proposalId": "The proposal id."
        }
      }
    },
    "title": "A voting system contract.",
    "version": 1
  },
  "userdoc": {
    "kind": "user",
    "methods": {},
    "version": 1
  }
}